{
  "contractName": "DataStorage",
  "abi": [
    {
      "inputs": [
        {
          "internalType": "address",
          "name": "_ownerSmartContract",
          "type": "address"
        },
        {
          "internalType": "uint256",
          "name": "_commissionInWei",
          "type": "uint256"
        }
      ],
      "stateMutability": "nonpayable",
      "type": "constructor"
    },
    {
      "anonymous": false,
      "inputs": [
        {
          "indexed": true,
          "internalType": "address",
          "name": "sender",
          "type": "address"
        },
        {
          "indexed": false,
          "internalType": "bytes",
          "name": "newData",
          "type": "bytes"
        }
      ],
      "name": "DataUpdated",
      "type": "event"
    },
    {
      "inputs": [],
      "name": "commissionInWei",
      "outputs": [
        {
          "internalType": "uint256",
          "name": "",
          "type": "uint256"
        }
      ],
      "stateMutability": "view",
      "type": "function",
      "constant": true
    },
    {
      "inputs": [
        {
          "internalType": "address",
          "name": "",
          "type": "address"
        }
      ],
      "name": "data",
      "outputs": [
        {
          "internalType": "bytes",
          "name": "",
          "type": "bytes"
        }
      ],
      "stateMutability": "view",
      "type": "function",
      "constant": true
    },
    {
      "inputs": [],
      "name": "ownerSmartContract",
      "outputs": [
        {
          "internalType": "address",
          "name": "",
          "type": "address"
        }
      ],
      "stateMutability": "view",
      "type": "function",
      "constant": true
    },
    {
      "inputs": [
        {
          "internalType": "bytes",
          "name": "newData",
          "type": "bytes"
        }
      ],
      "name": "createOrUpdateData",
      "outputs": [
        {
          "internalType": "bool",
          "name": "",
          "type": "bool"
        }
      ],
      "stateMutability": "payable",
      "type": "function",
      "payable": true
    },
    {
      "inputs": [],
      "name": "getData",
      "outputs": [
        {
          "internalType": "bytes",
          "name": "",
          "type": "bytes"
        }
      ],
      "stateMutability": "view",
      "type": "function",
      "constant": true
    },
    {
      "inputs": [
        {
          "internalType": "uint256",
          "name": "newCommissionInWeiValue",
          "type": "uint256"
        }
      ],
      "name": "setCommissionInWei",
      "outputs": [
        {
          "internalType": "bool",
          "name": "",
          "type": "bool"
        }
      ],
      "stateMutability": "nonpayable",
      "type": "function"
    },
    {
      "inputs": [],
      "name": "getCommissionInWei",
      "outputs": [
        {
          "internalType": "uint256",
          "name": "",
          "type": "uint256"
        }
      ],
      "stateMutability": "view",
      "type": "function",
      "constant": true
    }
  ],
  "bytecode": "0x60806040523480156200001157600080fd5b5060405162000e5038038062000e508339818101604052810190620000379190620000b4565b816000806101000a81548173ffffffffffffffffffffffffffffffffffffffff021916908373ffffffffffffffffffffffffffffffffffffffff16021790555080600181905550505062000167565b600081519050620000978162000133565b92915050565b600081519050620000ae816200014d565b92915050565b60008060408385031215620000c857600080fd5b6000620000d88582860162000086565b9250506020620000eb858286016200009d565b9150509250929050565b6000620001028262000109565b9050919050565b600073ffffffffffffffffffffffffffffffffffffffff82169050919050565b6000819050919050565b6200013e81620000f5565b81146200014a57600080fd5b50565b620001588162000129565b81146200016457600080fd5b50565b610cd980620001776000396000f3fe6080604052600436106100705760003560e01c8063b3ed67f01161004e578063b3ed67f01461010d578063b90d3d0c14610138578063e6cd992914610175578063f5658658146101a057610070565b80632ea7d24f146100755780633bc5de30146100b25780635a971d05146100dd575b600080fd5b34801561008157600080fd5b5061009c60048036038101906100979190610755565b6101cb565b6040516100a99190610868565b60405180910390f35b3480156100be57600080fd5b506100c761026c565b6040516100d49190610883565b60405180910390f35b6100f760048036038101906100f29190610714565b61033b565b6040516101049190610868565b60405180910390f35b34801561011957600080fd5b506101226104e2565b60405161012f9190610905565b60405180910390f35b34801561014457600080fd5b5061015f600480360381019061015a91906106eb565b6104ec565b60405161016c9190610883565b60405180910390f35b34801561018157600080fd5b5061018a61058c565b604051610197919061084d565b60405180910390f35b3480156101ac57600080fd5b506101b56105b0565b6040516101c29190610905565b60405180910390f35b60008060009054906101000a900473ffffffffffffffffffffffffffffffffffffffff1673ffffffffffffffffffffffffffffffffffffffff163373ffffffffffffffffffffffffffffffffffffffff161461025c576040517f08c379a0000000000000000000000000000000000000000000000000000000008152600401610253906108e5565b60405180910390fd5b8160018190555060019050919050565b6060600260003373ffffffffffffffffffffffffffffffffffffffff1673ffffffffffffffffffffffffffffffffffffffff16815260200190815260200160002080546102b890610a87565b80601f01602080910402602001604051908101604052809291908181526020018280546102e490610a87565b80156103315780601f1061030657610100808354040283529160200191610331565b820191906000526020600020905b81548152906001019060200180831161031457829003601f168201915b5050505050905090565b600080341161037f576040517f08c379a0000000000000000000000000000000000000000000000000000000008152600401610376906108c5565b60405180910390fd5b815160015461038e91906109a3565b3410156103d0576040517f08c379a00000000000000000000000000000000000000000000000000000000081526004016103c7906108a5565b60405180910390fd5b81600260003373ffffffffffffffffffffffffffffffffffffffff1673ffffffffffffffffffffffffffffffffffffffff16815260200190815260200160002090805190602001906104239291906105b6565b503373ffffffffffffffffffffffffffffffffffffffff167f20785abb7d61c3b28bbd9522c36c65eb307b70f5264b8d9af88bde993d2065e18360405161046a9190610883565b60405180910390a260008054906101000a900473ffffffffffffffffffffffffffffffffffffffff1673ffffffffffffffffffffffffffffffffffffffff166108fc349081150290604051600060405180830381858888f193505050501580156104d8573d6000803e3d6000fd5b5060019050919050565b6000600154905090565b6002602052806000526040600020600091509050805461050b90610a87565b80601f016020809104026020016040519081016040528092919081815260200182805461053790610a87565b80156105845780601f1061055957610100808354040283529160200191610584565b820191906000526020600020905b81548152906001019060200180831161056757829003601f168201915b505050505081565b60008054906101000a900473ffffffffffffffffffffffffffffffffffffffff1681565b60015481565b8280546105c290610a87565b90600052602060002090601f0160209004810192826105e4576000855561062b565b82601f106105fd57805160ff191683800117855561062b565b8280016001018555821561062b579182015b8281111561062a57825182559160200191906001019061060f565b5b509050610638919061063c565b5090565b5b8082111561065557600081600090555060010161063d565b5090565b600061066c61066784610945565b610920565b90508281526020810184848401111561068457600080fd5b61068f848285610a45565b509392505050565b6000813590506106a681610c75565b92915050565b600082601f8301126106bd57600080fd5b81356106cd848260208601610659565b91505092915050565b6000813590506106e581610c8c565b92915050565b6000602082840312156106fd57600080fd5b600061070b84828501610697565b91505092915050565b60006020828403121561072657600080fd5b600082013567ffffffffffffffff81111561074057600080fd5b61074c848285016106ac565b91505092915050565b60006020828403121561076757600080fd5b6000610775848285016106d6565b91505092915050565b610787816109fd565b82525050565b61079681610a0f565b82525050565b60006107a782610976565b6107b18185610981565b93506107c1818560208601610a54565b6107ca81610b77565b840191505092915050565b60006107e2604f83610992565b91506107ed82610b88565b606082019050919050565b6000610805602083610992565b915061081082610bfd565b602082019050919050565b6000610828602f83610992565b915061083382610c26565b604082019050919050565b61084781610a3b565b82525050565b6000602082019050610862600083018461077e565b92915050565b600060208201905061087d600083018461078d565b92915050565b6000602082019050818103600083015261089d818461079c565b905092915050565b600060208201905081810360008301526108be816107d5565b9050919050565b600060208201905081810360008301526108de816107f8565b9050919050565b600060208201905081810360008301526108fe8161081b565b9050919050565b600060208201905061091a600083018461083e565b92915050565b600061092a61093b565b90506109368282610ab9565b919050565b6000604051905090565b600067ffffffffffffffff8211156109605761095f610b48565b5b61096982610b77565b9050602081019050919050565b600081519050919050565b600082825260208201905092915050565b600082825260208201905092915050565b60006109ae82610a3b565b91506109b983610a3b565b9250817fffffffffffffffffffffffffffffffffffffffffffffffffffffffffffffffff04831182151516156109f2576109f1610aea565b5b828202905092915050565b6000610a0882610a1b565b9050919050565b60008115159050919050565b600073ffffffffffffffffffffffffffffffffffffffff82169050919050565b6000819050919050565b82818337600083830152505050565b60005b83811015610a72578082015181840152602081019050610a57565b83811115610a81576000848401525b50505050565b60006002820490506001821680610a9f57607f821691505b60208210811415610ab357610ab2610b19565b5b50919050565b610ac282610b77565b810181811067ffffffffffffffff82111715610ae157610ae0610b48565b5b80604052505050565b7f4e487b7100000000000000000000000000000000000000000000000000000000600052601160045260246000fd5b7f4e487b7100000000000000000000000000000000000000000000000000000000600052602260045260246000fd5b7f4e487b7100000000000000000000000000000000000000000000000000000000600052604160045260246000fd5b6000601f19601f8301169050919050565b7f54686520636f6d6d697373696f6e20616d6f756e74206d757374206265206e6f60008201527f206c657373207468616e202728636f6d6d697373696f6e496e576569202a206e60208201527f6577446174612e6c656e67746829270000000000000000000000000000000000604082015250565b7f5061796d656e7420726571756972656420666f72206461746120757064617465600082015250565b7f5b4e4f5420415554484f52495a45445d20596f7520617265206e6f74206f776e60008201527f6572536d617274436f6e74726163740000000000000000000000000000000000602082015250565b610c7e816109fd565b8114610c8957600080fd5b50565b610c9581610a3b565b8114610ca057600080fd5b5056fea2646970667358221220343b46dcbba847554a02fb0fad1e44249f96a69b03740d586af77efe554e887f64736f6c63430008040033",
  "immutableReferences": {},
  "source": "pragma solidity ^0.8.0;\n\ncontract DataStorage {\n    address public ownerSmartContract;\n    \n    // 1 wei = 0.000000000000000001 ETH\n    // 1 ETH = 1e18 wei\n    uint256 public commissionInWei;\n    \n    mapping(address => bytes) public data;\n\n    event DataUpdated(address indexed sender, bytes newData);\n\n    modifier onlyOwnerSmartContract() {\n        require(msg.sender == ownerSmartContract, \"[NOT AUTHORIZED] You are not ownerSmartContract\");\n        _;\n    }\n\n    constructor(address _ownerSmartContract, uint256 _commissionInWei) {\n        ownerSmartContract = _ownerSmartContract;\n        commissionInWei = _commissionInWei;\n    }\n\n    function createOrUpdateData(bytes memory newData) external payable returns (bool) {\n        require(msg.value > 0, \"Payment required for data update\");\n        require(msg.value >= (commissionInWei * newData.length), \"The commission amount must be no less than '(commissionInWei * newData.length)'\");\n        \n        data[msg.sender] = newData;\n        emit DataUpdated(msg.sender, newData);\n\n        payable(ownerSmartContract).transfer(msg.value);\n        return true;\n    }\n\n    function getData() external view returns (bytes memory) {\n        return data[msg.sender];\n    }\n    \n    function setCommissionInWei(uint256 newCommissionInWeiValue) public onlyOwnerSmartContract returns(bool) {\n    \tcommissionInWei = newCommissionInWeiValue;\n        return true;\n    }\n    \n    function getCommissionInWei() external view returns (uint256) {\n        return commissionInWei;\n    }\n}\n\n",
  "sourcePath": "/home/truffle_folder/contracts/DataStorage.sol",
  "compiler": {
    "name": "solc",
    "version": "0.8.4+commit.c7e474f2.Emscripten.clang"
  },
  "schemaVersion": "3.4.16",
  "updatedAt": "2023-12-10T14:00:59.654Z",
  "networkType": "ethereum",
  "devdoc": {
    "kind": "dev",
    "methods": {},
    "version": 1
  },
  "userdoc": {
    "kind": "user",
    "methods": {},
    "version": 1
  }
}